S01C0000456D62656464656446696E616C50726F6A6563742E737265633D
S11300000C9434000C9451000C9451000C94510045
S11300100C9451000C9451000C9451000C94510018
S11300200C9451000C9451000C9451000C94510008
S11300300C9451000C9411010C9453000C94510035
S11300400C9451000C9451000C9478000C945100C1
S11300500C94B0000C9451000C9451000C94510079
S11300600C9451000C94510011241FBECFEFD8E022
S1130070DEBFCDBF11E0A0E0B1E0E4E7F0E102C0F3
S113008005900D92A232B107D9F721E0A2E2B1E0C6
S113009001C01D92AB3BB207E1F70E94A1010C9491
S11300A038080C9400001F920F920FB60F9211247F
S11300B08F939F93AF93BF938091220190912301DB
S11300C0A0912401B09125010196A11DB11D809339
S11300D0220190932301A0932401B0932501BF91A1
S11300E0AF919F918F910F900FBE0F901F90189515
S11300F01F920F920FB60F9211248F939F93EF9339
S1130100FF93E0912601F09127018091C600E65DFE
S1130110FE4F80838091280190912901019690934C
S1130120290180932801809126019091270101964D
S113013090932701809326018091260190912701B5
S11301408038910520F01092270110922601FF912A
S1130150EF919F918F910F900FBE0F901F90189564
S11301601F920F920FB60F9211248F9381E0809308
S113017000018F910F900FBE0F901F9018950F9351
S11301801F938B019C01442389F18091C0008260FC
S11301908093C00068E070E080E090E0A9019801DD
S11301A00E9402059B01AC0160E074E284EF90E0E0
S11301B00E941205BA01A90141505109610971094E
S11301C0DB01CA0188279F70AA27BB27892F9A2F92
S11301D0AB2FBB278093C5004093C4008091C1001E
S11301E0886D8093C1001F910F91089560E170E0C4
S11301F080E090E0D3CFFC012191909100019923FC
S1130200E1F3109200012093C60021912111F5CF52
S1130210809100018823E1F3109200011092C6003E
S113022008951F920F920FB60F9211241092AA01F3
S11302300F900FBE0F901F90189584B1866084B9FB
S11302402098E0E8F0E0808182688083EFE6F0E0C7
S113025080818160808387E0809389008FEC809324
S113026088008CE9809387008FE380938600E1E81F
S1130270F0E080818A618083789408951092B701B8
S11302801092B8011092B9011092BA011092B30100
S11302901092B4011092B5011092B601189BFECFD2
S11302A08091840090918500A0E0B0E08093B70134
S11302B09093B801A093B901B093BA011899FECFF5
S11302C08091840090918500A0E0B0E08093B30118
S11302D09093B401A093B501B093B6018091B3019A
S11302E09091B401A091B501B091B6014091B701CC
S11302F05091B8016091B9017091BA01841B950BBA
S1130300A60BB70B8093AF019093B001A093B101FA
S1130310B093B2016091AF017091B0018091B101CD
S11303209091B2012AE330E040E050E00E941205CF
S11303302093AB013093AC014093AD015093AE01D7
S11303400895CF93DF93CDB7DEB72A970FB6F8940D
S1130350DEBF0FBECDBF40E060E875E280E090E014
S11303600E94BF000E941D0181E08093AA01809138
S1130370AA018111FCCF87E0809389008FEC8093E0
S11303808800CE0101967C0103E111E0BB24B39403
S11303909EE1C92ED12C2A989AE09A95F1F700C0D3
S11303A02A9A25E32A95F1F700002A980E943E0133
S11303B08091AB019091AC01A091AD01B091AE01DF
S11303C04F97A105B10508F4AFC0B60180E090E0F5
S11303D00E94070420E030E044E353E40E946603F3
S11303E020E030E84BE355E40E94950420E030EE31
S11303F049EF54E40E94FA020E94D803B092AA0181
S11304008091AA018111FCCF7093890060938800C8
S11304108FE39CE90197F1F700C000009FEFC91A30
S1130420D90A27E9C216D10409F0B5CF86E9C82E46
S1130430D12C2A988AE08A95F1F700C02A9A95E38C
S11304409A95F1F700002A980E943E018091AB0131
S11304509091AC01A091AD01B091AE014F97A1056F
S1130460B10508F47CC0B60180E090E00E94070466
S113047020E030E044E353E40E94660320E030E8E7
S11304804BE355E40E94950420E030EE49EF54E438
S11304900E94FA020E94D803B092AA018091AA0194
S11304A08111FCCF70938900609388008FE39CE9ED
S11304B00197F1F700C0000091E0C91AD1082DE1BD
S11304C0C216D10409F0B5CF63CF81E091E00E9458
S11304D0FB008091AB019091AC01A091AD01B09172
S11304E0AE01BF93AF939F938F931F930F93FF928C
S11304F0EF920E944E0586E191E00E94FB00C70145
S11305000E94FB0081E191E00E94FB008FEF99E6DD
S113051028E1815090402040E1F700C000000FB670
S1130520F894DEBF0FBECDBF2A989AE09A95F1F7F2
S113053000C02A9A25E32A95F1F700002A980E9420
S11305403E018091AB019091AC01A091AD01B091BD
S1130550AE014F97A105B10508F4B7CF36CF2A985D
S11305609AE09A95F1F700C02A9A25E32A95F1F7C3
S113057000002A980E943E018091AB019091AC0149
S1130580A091AD01B091AE014F97A105B10508F05E
S11305906ACF81E091E00E94FB008091AB019091D1
S11305A0AC01A091AD01B091AE01BF93AF939F9305
S11305B08F931F930F93FF92EF920E944E0586E153
S11305C091E00E94FB00C7010E94FB0081E191E0E1
S11305D00E94FB002FEF89E698E121508040904073
S11305E0E1F700C000000FB6F894DEBF0FBECDBF28
S11305F0B6CF5058BB27AA270E9411030C945B0462
S11306000E944D0438F00E94540420F039F49F3FB6
S113061019F426F40C944A040EF4E095E7FB0C94C8
S11306204404E92F0E946C0458F3BA176207730755
S11306308407950720F079F4A6F50C948E040EF443
S1130640E0950B2EBA2FA02D0B01B90190010C01DE
S1130650CA01A0011124FF27591B99F0593F50F4F6
S1130660503E68F11A16F040A22F232F342F44274E
S1130670585FF3CF469537952795A795F040539546
S1130680C9F77EF41F16BA0B620B730B840BBAF016
S11306909150A1F0FF0FBB1F661F771F881FC2F781
S11306A00EC0BA0F621F731F841F48F48795779595
S11306B06795B795F7959E3F08F0B0CF9395880F4F
S11306C008F09927EE0F9795879508950E947A036D
S11306D00C945B040E94540458F00E944D0440F0B2
S11306E029F45F3F29F00C94440451110C948F04B5
S11306F00C944A040E946C0468F39923B1F35523C3
S113070091F3951B550BBB27AA2762177307840720
S113071038F09F5F5F4F220F331F441FAA1FA9F3B6
S113072035D00E2E3AF0E0E832D091505040E695A4
S1130730001CCAF72BD0FE2F29D0660F771F881F05
S1130740BB1F261737074807AB07B0E809F0BB0BF8
S1130750802DBF01FF2793585F4F3AF09E3F51050C
S113076078F00C9444040C948F045F3FE4F3983EB7
S1130770D4F3869577956795B795F7959F5FC9F7F5
S1130780880F911D9695879597F90895E1E0660F76
S1130790771F881FBB1F621773078407BA0720F0EF
S11307A0621B730B840BBA0BEE1F88F7E095089558
S11307B00E94740488F09F5798F0B92F9927B75175
S11307C0B0F0E1F0660F771F881F991F1AF0BA95F1
S11307D0C9F714C0B13091F00E948E04B1E00895BD
S11307E00C948E04672F782F8827B85F39F0B93FAF
S11307F0CCF3869577956795B395D9F73EF49095A4
S11308008095709561957F4F8F4F9F4F0895E89421
S113081009C097FB3EF490958095709561957F4F44
S11308208F4F9F4F9923A9F0F92F96E9BB279395F2
S1130830F695879577956795B795F111F8CFFAF402
S1130840BB0F11F460FF1BC06F5F7F4F8F4F9F4F33
S113085016C0882311F096E911C0772321F09EE891
S1130860872F762F05C0662371F096E8862F70E0F7
S113087060E02AF09A95660F771F881FDAF7880FD1
S11308809695879597F9089597F99F6780E870E0A2
S113089060E008959FEF80EC089500240A941616F2
S11308A0170618060906089500240A94121613065A
S11308B0140605060895092E0394000C11F48823E8
S11308C052F0BB0F40F4BF2B11F460FF04C06F5F04
S11308D07F4F8F4F9F4F089557FD9058440F551FDA
S11308E059F05F3F71F04795880F97FB991F61F0AE
S11308F09F3F79F087950895121613061406551F25
S1130900F2CF4695F1DF08C0161617061806991F90
S1130910F1CF86957105610508940895E894BB2785
S113092066277727CB0197F908950E94A8040C94B1
S11309305B040E944D0438F00E94540420F0952377
S113094011F00C9444040C944A0411240C948F0464
S11309500E946C0470F3959FC1F3950F50E0551FEE
S1130960629FF001729FBB27F00DB11D639FAA2700
S1130970F00DB11DAA1F649F6627B00DA11D661F4F
S1130980829F2227B00DA11D621F739FB00DA11D70
S1130990621F839FA00D611D221F749F3327A00D2A
S11309A0611D231F849F600D211D822F762F6A2FC6
S11309B011249F5750409AF0F1F088234AF0EE0F2B
S11309C0FF1FBB1F661F771F881F91505040A9F758
S11309D09E3F510580F00C9444040C948F045F3FB7
S11309E0E4F3983ED4F3869577956795B795F79594
S11309F0E7959F5FC1F7FE2B880F911D969587950C
S1130A0097F90895DB018F939F930E943405BF915A
S1130A10AF91A29F800D911DA39F900DB29F900D49
S1130A2011240895A1E21A2EAA1BBB1BFD010DC0BF
S1130A30AA1FBB1FEE1FFF1FA217B307E407F5078A
S1130A4020F0A21BB30BE40BF50B661F771F881F66
S1130A50991F1A9469F760957095809590959B01FC
S1130A60AC01BD01CF0108950E943F05A59F900DE3
S1130A70B49F900DA49F800D911D11240895A29FF1
S1130A80B001B39FC001A39F700D811D1124911D5E
S1130A90B29F700D811D1124911D0895AEE0B0E048
S1130AA0E4E5F5E00C940F080D891E8986E08C833B
S1130AB01A8309838FEF9FE79E838D83AE01475E80
S1130AC05F4F6F89788DCE0101960E947005EF818A
S1130AD0F885E00FF11F10822E96E4E00C942B08A9
S1130AE0ABE0B0E0E6E7F5E00C9401086C017B01B3
S1130AF08A01FC0117821682838181FFCCC1CE0159
S1130B0001963C01F6019381F70193FD859193FFD2
S1130B1081917F01882309F4BAC1853239F493FDA8
S1130B20859193FF81917F01853229F4B60190E08C
S1130B300E946707E7CF912C212C312CFFE1F3159C
S1130B40D8F08B3279F038F4803279F08332A1F422
S1130B50232D20611DC08D3261F0803369F4232D73
S1130B60216016C0832D8260382EE32DE4603E2E72
S1130B702AC0F32DF8601DC037FC2DC020ED280FCE
S1130B802A3040F08E32B9F436FC81C1232D206422
S1130B90322E19C036FE06C08AE0989E200D11241C
S1130BA0922E11C0EAE02E9E200D1124222EF32D48
S1130BB0F0623F2E08C08C3621F4832D8068382ED5
S1130BC002C0883641F4F70193FD859193FF81912A
S1130BD07F018111B3CF982F9F7D9554933028F4D2
S1130BE00C5F1F4F9FE399830DC0833631F0833729
S1130BF071F0833509F059C021C0F80180818983DF
S1130C000E5F1F4F88248394912C530113C0280135
S1130C10F2E04F0E511CF801A080B18036FE03C0F3
S1130C20692D70E002C06FEF7FEFC5010E945C0781
S1130C304C018201F32DFF773F2E16C0280122E0DC
S1130C40420E511CF801A080B18036FE03C0692D0C
S1130C5070E002C06FEF7FEFC5010E9451074C01A5
S1130C60F32DF0683F2E820133FC1BC0822D90E0EF
S1130C7088169906B0F4B60180E290E00E946707F6
S1130C802A94F4CFF50137FC859137FE81915F01F9
S1130C90B60190E00E94670721102A9421E0821A8D
S1130CA091088114910471F7E8C0843611F08936F3
S1130CB041F5F80137FE07C060817181828193811B
S1130CC00C5F1F4F08C060817181072E000C880BD8
S1130CD0990B0E5F1F4FF32DFF763F2E97FF09C030
S1130CE090958095709561957F4F8F4F9F4FF068D9
S1130CF03F2E2AE030E0A3010E94A307882E861825
S1130D0045C0853731F4232D2F7EB22E2AE030E002
S1130D1025C0932D997FB92E8F36C1F018F48835EC
S1130D2079F0B5C0803719F0883721F0B0C0E92FC9
S1130D30E061BE2EB4FE0DC0FB2DF460BF2E09C0D1
S1130D4034FE0AC0292F2660B22E06C028E030E007
S1130D5005C020E130E002C020E132E0F801B7FE36
S1130D6007C060817181828193810C5F1F4F06C02F
S1130D706081718180E090E00E5F1F4FA3010E94AB
S1130D80A307882E8618FB2DFF773F2E36FE0DC055
S1130D90232D2E7FA22E891458F434FE0BC032FC6E
S1130DA009C0832D8E7EA82E05C0B82CA32C03C0A9
S1130DB0B82C01C0B92CA4FE0FC0FE01E80DF11D32
S1130DC08081803321F49A2D997EA92E09C0A2FE38
S1130DD006C0B394B39404C08A2D867809F0B39402
S1130DE0A3FC11C0A0FE06C0B21488F4280C922CF7
S1130DF09B180EC0B21460F4B60180E290E00E9429
S1130E006707B394F7CFB21418F42B1802C0982CC8
S1130E10212CA4FE10C0B60180E390E00E94670775
S1130E20A2FE17C0A1FC03C088E790E002C088E5D9
S1130E3090E0B6010CC08A2D867859F0A1FE02C05C
S1130E408BE201C080E2A7FC8DE2B60190E00E9433
S1130E506707891438F4B60180E390E00E946707BD
S1130E609A94F7CF8A94F301E80DF11D8081B601BD
S1130E7090E00E9467078110F5CF222009F442CE4A
S1130E80B60180E290E00E9467072A94F6CFF6014B
S1130E908681978102C08FEF9FEF2B96E2E10C943D
S1130EA01D08FC010590615070400110D8F7809531
S1130EB090958E0F9F1F0895FC0161507040019022
S1130EC00110D8F7809590958E0F9F1F08950F936A
S1130ED01F93CF93DF93FB01238121FD03C08FEF89
S1130EE09FEF2CC022FF16C0468157812481358193
S1130EF04217530744F4A081B1819D012F5F3F4FF6
S1130F00318320838C93268137812F5F3F4F378332
S1130F10268314C08B01EC01FB010084F185E02DD4
S1130F200995892BE1F6D80116968D919C91179716
S1130F30019617969C938E931697CE01DF91CF91CD
S1130F401F910F910895FA01AA27283051F12031F9
S1130F5081F1E8946F936E7F6E5F7F4F8F4F9F4F49
S1130F60AF4FB1E03ED0B4E03CD0670F781F891F8B
S1130F709A1FA11D680F791F8A1F911DA11D6A0F59
S1130F80711D811D911DA11D20D009F468943F910C
S1130F902AE0269F11243019305D3193DEF6CF010B
S1130FA00895462F4770405D4193B3E00FD0C9F7D1
S1130FB0F6CF462F4F70405D4A3318F0495D31FD3E
S1130FC04052419302D0A9F7EACFB4E0A695979591
S1130FD0879577956795BA95C9F700976105710567
S1130FE008959B01AC010A2E0694579547953795B1
S1130FF02795BA95C9F7620F731F841F951FA01D0B
S113100008952F923F924F925F926F927F928F92A8
S11310109F92AF92BF92CF92DF92EF92FF920F9383
S11310201F93CF93DF93CDB7DEB7CA1BDB0B0FB68D
S1131030F894DEBF0FBECDBF09942A88398848884A
S11310405F846E847D848C849B84AA84B984C884E0
S1131050DF80EE80FD800C811B81AA81B981CE0FD7
S1131060D11D0FB6F894DEBF0FBECDBFED010895BC
S1071070F894FFCF1E
S1131074014F626A656374206465746563746564AE
S1131084210A0025750044697374616E63653A200E
S1051094000056
S9030000FC
